{"abi":[{"type":"constructor","inputs":[{"name":"admin","type":"address","internalType":"address"}],"stateMutability":"nonpayable"},{"type":"function","name":"COMPLIANCE_ROLE","inputs":[],"outputs":[{"name":"","type":"bytes32","internalType":"bytes32"}],"stateMutability":"view"},{"type":"function","name":"DEFAULT_ADMIN_ROLE","inputs":[],"outputs":[{"name":"","type":"bytes32","internalType":"bytes32"}],"stateMutability":"view"},{"type":"function","name":"MAX_COMMITMENT_LENGTH","inputs":[],"outputs":[{"name":"","type":"uint256","internalType":"uint256"}],"stateMutability":"view"},{"type":"function","name":"MINTER_ROLE","inputs":[],"outputs":[{"name":"","type":"bytes32","internalType":"bytes32"}],"stateMutability":"view"},{"type":"function","name":"approve","inputs":[{"name":"to","type":"address","internalType":"address"},{"name":"tokenId","type":"uint256","internalType":"uint256"}],"outputs":[],"stateMutability":"nonpayable"},{"type":"function","name":"balanceOf","inputs":[{"name":"owner","type":"address","internalType":"address"}],"outputs":[{"name":"","type":"uint256","internalType":"uint256"}],"stateMutability":"view"},{"type":"function","name":"burn","inputs":[{"name":"tokenId","type":"uint256","internalType":"uint256"}],"outputs":[],"stateMutability":"nonpayable"},{"type":"function","name":"getApproved","inputs":[{"name":"tokenId","type":"uint256","internalType":"uint256"}],"outputs":[{"name":"","type":"address","internalType":"address"}],"stateMutability":"view"},{"type":"function","name":"getMintedAt","inputs":[{"name":"tokenId","type":"uint256","internalType":"uint256"}],"outputs":[{"name":"","type":"uint256","internalType":"uint256"}],"stateMutability":"view"},{"type":"function","name":"getPrivateCommitment","inputs":[{"name":"tokenId","type":"uint256","internalType":"uint256"}],"outputs":[{"name":"","type":"bytes","internalType":"bytes"}],"stateMutability":"view"},{"type":"function","name":"getPropertyId","inputs":[{"name":"tokenId","type":"uint256","internalType":"uint256"}],"outputs":[{"name":"","type":"string","internalType":"string"}],"stateMutability":"view"},{"type":"function","name":"getRoleAdmin","inputs":[{"name":"role","type":"bytes32","internalType":"bytes32"}],"outputs":[{"name":"","type":"bytes32","internalType":"bytes32"}],"stateMutability":"view"},{"type":"function","name":"grantRole","inputs":[{"name":"role","type":"bytes32","internalType":"bytes32"},{"name":"account","type":"address","internalType":"address"}],"outputs":[],"stateMutability":"nonpayable"},{"type":"function","name":"hasRole","inputs":[{"name":"role","type":"bytes32","internalType":"bytes32"},{"name":"account","type":"address","internalType":"address"}],"outputs":[{"name":"","type":"bool","internalType":"bool"}],"stateMutability":"view"},{"type":"function","name":"isApprovedForAll","inputs":[{"name":"owner","type":"address","internalType":"address"},{"name":"operator","type":"address","internalType":"address"}],"outputs":[{"name":"","type":"bool","internalType":"bool"}],"stateMutability":"view"},{"type":"function","name":"isVerified","inputs":[{"name":"tokenId","type":"uint256","internalType":"uint256"}],"outputs":[{"name":"","type":"bool","internalType":"bool"}],"stateMutability":"view"},{"type":"function","name":"mintPropertyDeed","inputs":[{"name":"to","type":"address","internalType":"address"},{"name":"propertyId","type":"string","internalType":"string"},{"name":"metadataURI","type":"string","internalType":"string"},{"name":"privateCommitment","type":"bytes","internalType":"bytes"}],"outputs":[{"name":"tokenId","type":"uint256","internalType":"uint256"}],"stateMutability":"nonpayable"},{"type":"function","name":"name","inputs":[],"outputs":[{"name":"","type":"string","internalType":"string"}],"stateMutability":"view"},{"type":"function","name":"ownerOf","inputs":[{"name":"tokenId","type":"uint256","internalType":"uint256"}],"outputs":[{"name":"","type":"address","internalType":"address"}],"stateMutability":"view"},{"type":"function","name":"pause","inputs":[],"outputs":[],"stateMutability":"nonpayable"},{"type":"function","name":"paused","inputs":[],"outputs":[{"name":"","type":"bool","internalType":"bool"}],"stateMutability":"view"},{"type":"function","name":"renounceRole","inputs":[{"name":"role","type":"bytes32","internalType":"bytes32"},{"name":"callerConfirmation","type":"address","internalType":"address"}],"outputs":[],"stateMutability":"nonpayable"},{"type":"function","name":"revokeRole","inputs":[{"name":"role","type":"bytes32","internalType":"bytes32"},{"name":"account","type":"address","internalType":"address"}],"outputs":[],"stateMutability":"nonpayable"},{"type":"function","name":"revokeVerification","inputs":[{"name":"tokenId","type":"uint256","internalType":"uint256"}],"outputs":[],"stateMutability":"nonpayable"},{"type":"function","name":"safeTransferFrom","inputs":[{"name":"from","type":"address","internalType":"address"},{"name":"to","type":"address","internalType":"address"},{"name":"tokenId","type":"uint256","internalType":"uint256"}],"outputs":[],"stateMutability":"nonpayable"},{"type":"function","name":"safeTransferFrom","inputs":[{"name":"from","type":"address","internalType":"address"},{"name":"to","type":"address","internalType":"address"},{"name":"tokenId","type":"uint256","internalType":"uint256"},{"name":"data","type":"bytes","internalType":"bytes"}],"outputs":[],"stateMutability":"nonpayable"},{"type":"function","name":"setApprovalForAll","inputs":[{"name":"operator","type":"address","internalType":"address"},{"name":"approved","type":"bool","internalType":"bool"}],"outputs":[],"stateMutability":"nonpayable"},{"type":"function","name":"supportsInterface","inputs":[{"name":"interfaceId","type":"bytes4","internalType":"bytes4"}],"outputs":[{"name":"","type":"bool","internalType":"bool"}],"stateMutability":"view"},{"type":"function","name":"symbol","inputs":[],"outputs":[{"name":"","type":"string","internalType":"string"}],"stateMutability":"view"},{"type":"function","name":"tokenURI","inputs":[{"name":"tokenId","type":"uint256","internalType":"uint256"}],"outputs":[{"name":"","type":"string","internalType":"string"}],"stateMutability":"view"},{"type":"function","name":"totalMinted","inputs":[],"outputs":[{"name":"","type":"uint256","internalType":"uint256"}],"stateMutability":"view"},{"type":"function","name":"transferFrom","inputs":[{"name":"from","type":"address","internalType":"address"},{"name":"to","type":"address","internalType":"address"},{"name":"tokenId","type":"uint256","internalType":"uint256"}],"outputs":[],"stateMutability":"nonpayable"},{"type":"function","name":"unpause","inputs":[],"outputs":[],"stateMutability":"nonpayable"},{"type":"function","name":"updatePrivateCommitment","inputs":[{"name":"tokenId","type":"uint256","internalType":"uint256"},{"name":"newCommitment","type":"bytes","internalType":"bytes"}],"outputs":[],"stateMutability":"nonpayable"},{"type":"function","name":"verifyProperty","inputs":[{"name":"tokenId","type":"uint256","internalType":"uint256"}],"outputs":[],"stateMutability":"nonpayable"},{"type":"event","name":"Approval","inputs":[{"name":"owner","type":"address","indexed":true,"internalType":"address"},{"name":"approved","type":"address","indexed":true,"internalType":"address"},{"name":"tokenId","type":"uint256","indexed":true,"internalType":"uint256"}],"anonymous":false},{"type":"event","name":"ApprovalForAll","inputs":[{"name":"owner","type":"address","indexed":true,"internalType":"address"},{"name":"operator","type":"address","indexed":true,"internalType":"address"},{"name":"approved","type":"bool","indexed":false,"internalType":"bool"}],"anonymous":false},{"type":"event","name":"BatchMetadataUpdate","inputs":[{"name":"_fromTokenId","type":"uint256","indexed":false,"internalType":"uint256"},{"name":"_toTokenId","type":"uint256","indexed":false,"internalType":"uint256"}],"anonymous":false},{"type":"event","name":"DeedTransferred","inputs":[{"name":"from","type":"address","indexed":true,"internalType":"address"},{"name":"to","type":"address","indexed":true,"internalType":"address"},{"name":"tokenId","type":"uint256","indexed":true,"internalType":"uint256"}],"anonymous":false},{"type":"event","name":"MetadataUpdate","inputs":[{"name":"_tokenId","type":"uint256","indexed":false,"internalType":"uint256"}],"anonymous":false},{"type":"event","name":"Paused","inputs":[{"name":"account","type":"address","indexed":false,"internalType":"address"}],"anonymous":false},{"type":"event","name":"PrivateDataUpdated","inputs":[{"name":"tokenId","type":"uint256","indexed":true,"internalType":"uint256"},{"name":"commitment","type":"bytes","indexed":false,"internalType":"bytes"}],"anonymous":false},{"type":"event","name":"PropertyTokenized","inputs":[{"name":"owner","type":"address","indexed":true,"internalType":"address"},{"name":"tokenId","type":"uint256","indexed":true,"internalType":"uint256"},{"name":"propertyId","type":"string","indexed":false,"internalType":"string"},{"name":"metadataURI","type":"string","indexed":false,"internalType":"string"}],"anonymous":false},{"type":"event","name":"PropertyVerified","inputs":[{"name":"tokenId","type":"uint256","indexed":true,"internalType":"uint256"},{"name":"verified","type":"bool","indexed":false,"internalType":"bool"}],"anonymous":false},{"type":"event","name":"RoleAdminChanged","inputs":[{"name":"role","type":"bytes32","indexed":true,"internalType":"bytes32"},{"name":"previousAdminRole","type":"bytes32","indexed":true,"internalType":"bytes32"},{"name":"newAdminRole","type":"bytes32","indexed":true,"internalType":"bytes32"}],"anonymous":false},{"type":"event","name":"RoleGranted","inputs":[{"name":"role","type":"bytes32","indexed":true,"internalType":"bytes32"},{"name":"account","type":"address","indexed":true,"internalType":"address"},{"name":"sender","type":"address","indexed":true,"internalType":"address"}],"anonymous":false},{"type":"event","name":"RoleRevoked","inputs":[{"name":"role","type":"bytes32","indexed":true,"internalType":"bytes32"},{"name":"account","type":"address","indexed":true,"internalType":"address"},{"name":"sender","type":"address","indexed":true,"internalType":"address"}],"anonymous":false},{"type":"event","name":"Transfer","inputs":[{"name":"from","type":"address","indexed":true,"internalType":"address"},{"name":"to","type":"address","indexed":true,"internalType":"address"},{"name":"tokenId","type":"uint256","indexed":true,"internalType":"uint256"}],"anonymous":false},{"type":"event","name":"Unpaused","inputs":[{"name":"account","type":"address","indexed":false,"internalType":"address"}],"anonymous":false},{"type":"error","name":"AccessControlBadConfirmation","inputs":[]},{"type":"error","name":"AccessControlUnauthorizedAccount","inputs":[{"name":"account","type":"address","internalType":"address"},{"name":"neededRole","type":"bytes32","internalType":"bytes32"}]},{"type":"error","name":"DuplicatePropertyId","inputs":[{"name":"propertyId","type":"string","internalType":"string"}]},{"type":"error","name":"ERC721IncorrectOwner","inputs":[{"name":"sender","type":"address","internalType":"address"},{"name":"tokenId","type":"uint256","internalType":"uint256"},{"name":"owner","type":"address","internalType":"address"}]},{"type":"error","name":"ERC721InsufficientApproval","inputs":[{"name":"operator","type":"address","internalType":"address"},{"name":"tokenId","type":"uint256","internalType":"uint256"}]},{"type":"error","name":"ERC721InvalidApprover","inputs":[{"name":"approver","type":"address","internalType":"address"}]},{"type":"error","name":"ERC721InvalidOperator","inputs":[{"name":"operator","type":"address","internalType":"address"}]},{"type":"error","name":"ERC721InvalidOwner","inputs":[{"name":"owner","type":"address","internalType":"address"}]},{"type":"error","name":"ERC721InvalidReceiver","inputs":[{"name":"receiver","type":"address","internalType":"address"}]},{"type":"error","name":"ERC721InvalidSender","inputs":[{"name":"sender","type":"address","internalType":"address"}]},{"type":"error","name":"ERC721NonexistentToken","inputs":[{"name":"tokenId","type":"uint256","internalType":"uint256"}]},{"type":"error","name":"EmptyCommitment","inputs":[]},{"type":"error","name":"EmptyMetadataURI","inputs":[]},{"type":"error","name":"EmptyPropertyId","inputs":[]},{"type":"error","name":"EnforcedPause","inputs":[]},{"type":"error","name":"ExpectedPause","inputs":[]},{"type":"error","name":"InvalidCommitmentLength","inputs":[{"name":"length","type":"uint256","internalType":"uint256"}]},{"type":"error","name":"PropertyNotVerified","inputs":[{"name":"tokenId","type":"uint256","internalType":"uint256"}]},{"type":"error","name":"ReentrancyGuardReentrantCall","inputs":[]},{"type":"error","name":"SelfTransferNotAllowed","inputs":[]}],"bytecode":{"object":"0x6080346200038157601f1990601f906001600160401b03620027a03881900384810186168401838111858210176200036b57849282916040528339602093849181010312620003815751926001600160a01b038416840362000381576200006562000386565b92601384527f537472617461446565642050726f706572747900000000000000000000000000818501526200009962000386565b90600582526414d111515160da1b818301528451968488116200036b576000978854966001978881811c9116801562000360575b858210146200034c57908187849311620002f9575b50849087831160011462000298578b926200028c575b5050600019600383901b1c191690871b1788555b8251948511620002785785548681811c911680156200026d575b83821014620002595784811162000211575b5081938511600114620001a85750509082916200018b96926200019c575b5050600019600383901b1c191690821b1781555b6009556200017881620003a6565b50620001848162000427565b50620004ca565b506040516122179081620005698239f35b01519050388062000156565b8588528188209497908816915b828210620001f957505091849391876200018b989410620001df575b505050811b0181556200016a565b015160001960f88460031b161c19169055388080620001d1565b808786978294978701518155019601940190620001b5565b8689528289208580880160051c8201928589106200024f575b0160051c019087905b8281106200024357505062000138565b8a815501879062000233565b925081926200022a565b634e487b7160e01b89526022600452602489fd5b90607f169062000126565b634e487b7160e01b88526041600452602488fd5b015190503880620000f8565b90848a9416918c8052868d20928d5b88828210620002e25750508411620002c8575b505050811b0188556200010c565b015160001960f88460031b161c19169055388080620002ba565b8385015186558d97909501949384019301620002a7565b9091508a8052848b208780850160051c82019287861062000342575b918b91869594930160051c01915b82811062000333575050620000e2565b8d81558594508b910162000323565b9250819262000315565b634e487b7160e01b8b52602260045260248bfd5b90607f1690620000cd565b634e487b7160e01b600052604160045260246000fd5b600080fd5b60408051919082016001600160401b038111838210176200036b57604052565b6001600160a01b031660008181527f6d5257204ebe7d88fd91ae87941cb2dd9d8062b64ae5a2bd2d28ec40b9fbf6df602052604081205490919060ff16620004235781805260076020526040822081835260205260408220600160ff198254161790553391600080516020620027808339815191528180a4600190565b5090565b6001600160a01b031660008181527fa4bfd7afe708e2e87e7f0e2ad9b4d545417e0f795f57b5c5ab5d799c565a04f460205260408120549091907f9f2df0fed2c77648de5860a4cc508cd0818c85b8b8a1ab4ceeef8d981c8956a69060ff16620004c55780835260076020526040832082845260205260408320600160ff1982541617905560008051602062002780833981519152339380a4600190565b505090565b6001600160a01b031660008181527f674f3e4fb6a06d567d1ba54367a37cfa280f2988d50a919f233dad2c73ed372060205260408120549091907f442a94f1a1fac79af32856af2a64f63648cfa2ef3b98610a5bb7cbec4cee69859060ff16620004c55780835260076020526040832082845260205260408320600160ff1982541617905560008051602062002780833981519152339380a460019056fe608080604052600436101561001357600080fd5b60003560e01c90816301ffc9a71461190a57508063062d3bd7146118cf57806306fdde031461182c578063081812fc146117ee578063095ea7b3146117075780631571f0c61461169e57806323b872dd14611687578063248a9ca3146116585780632f2ff15d1461161957806336568abe146115d257806337b6d96b146115975780633f4ba83a1461152d5780634212a8ae146114c157806342842e0e1461149357806342966c68146112b057806355b652ca146110ea5780635c975abb146110c75780636352211e1461109757806370a082311461103e57806379774d7e146107585780638456cb59146106fe57806391d14854146106b157806395d89b41146105e6578063a217fddf146105ca578063a22cb46514610525578063a2309ff814610507578063b4257e28146104b3578063b88d4fde14610447578063c73e154c1461042b578063c87b56dd146103c1578063d539139314610386578063d547741f14610345578063e985e9c5146102ef578063f00fb171146101db5763f449b34a146101a057600080fd5b346101d65760203660031901126101d6576004356101bd81611fa5565b50600052600e6020526020604060002054604051908152f35b600080fd5b346101d6576020806003193601126101d657600435906001600160a01b0361020283611fa5565b16331480156102ad575b1561024f5761023091600052600c8152610237604060002060405193848092611cf6565b0383611a94565b61024b6040519282849384528301906119a9565b0390f35b6084906040519062461bcd60e51b82526004820152603160248201527f4f6e6c792064656564206f776e6572206f7220636f6d706c69616e63652063616044820152701b881c9958590818dbdb5b5a5d1b595b9d607a1b6064820152fd5b507f442a94f1a1fac79af32856af2a64f63648cfa2ef3b98610a5bb7cbec4cee698560005260078152604060002033600052815260ff6040600020541661020c565b346101d65760403660031901126101d6576103086119e9565b6103106119ff565b9060018060a01b03809116600052600560205260406000209116600052602052602060ff604060002054166040519015158152f35b346101d65760403660031901126101d6576103846004356103646119ff565b9080600052600760205261037f600160406000200154611b9f565b611c45565b005b346101d65760003660031901126101d65760206040517f9f2df0fed2c77648de5860a4cc508cd0818c85b8b8a1ab4ceeef8d981c8956a68152f35b346101d65760203660031901126101d6576004356103de81611fa5565b50600052600660205261024b610401610408604060002060405192838092611cf6565b0382611a94565b600060405161041681611a78565b526040519182916020835260208301906119a9565b346101d65760003660031901126101d657602060405160408152f35b346101d65760803660031901126101d6576104606119e9565b6104686119ff565b906044356064359267ffffffffffffffff84116101d657366023850112156101d6576104a1610384943690602481600401359101611ad2565b926104ad838383611d8c565b33611fe0565b346101d65760203660031901126101d6576004356104d081611fa5565b50600052600b60205261024b6104016104f3604060002060405192838092611cf6565b6040519182916020835260208301906119a9565b346101d65760003660031901126101d6576020600a54604051908152f35b346101d65760403660031901126101d65761053e6119e9565b602435908115158092036101d6576001600160a01b03169081156105b157336000526005602052604060002082600052602052604060002060ff1981541660ff83161790556040519081527f17307eab39ab6107e8899845ad3d59bd9653f200f220920489ca2b5937696c3160203392a3005b604051630b61174360e31b815260048101839052602490fd5b346101d65760003660031901126101d657602060405160008152f35b346101d65760003660031901126101d6576040516000600180549061060a82611cbc565b8085529181811690811561068a5750600114610631575b61024b846104f381860382611a94565b600081815292507fb10e2d527612073b26eecdfd717e6a320cf44b4afac2b0732d9fcbe2b7fa0cf65b8284106106725750505081016020016104f382610621565b8054602085870181019190915290930192810161065a565b60ff191660208087019190915292151560051b850190920192506104f39150839050610621565b346101d65760403660031901126101d6576106ca6119ff565b600435600052600760205260406000209060018060a01b0316600052602052602060ff604060002054166040519015158152f35b346101d65760003660031901126101d657610717611b65565b61071f6121a3565b600160ff1960085416176008557f62e78cea01bee320cd4e420270b5ea74000d11b0c9f74754ebdbfc544b05a2586020604051338152a1005b346101d65760803660031901126101d6576107716119e9565b60243567ffffffffffffffff81116101d657610791903690600401611a4a565b9060443567ffffffffffffffff81116101d6576107b2903690600401611a4a565b939060643567ffffffffffffffff81116101d6576107d4903690600401611a4a565b3360009081527fa4bfd7afe708e2e87e7f0e2ad9b4d545417e0f795f57b5c5ab5d799c565a04f46020526040902054919290917f9f2df0fed2c77648de5860a4cc508cd0818c85b8b8a1ab4ceeef8d981c8956a69060ff1615611020575061083a6121a3565b60026009541461100e5760026009558515610ffc578615610fea578115610fd85760408211610fbf576040516020810190878783376108896020828a8101600083820152038084520182611a94565b51902080600052600f60205260ff60406000205416610f9857600052600f6020526040600020600160ff19825416179055600a54956000198714610f825760018701600a556040516108da81611a78565b600081526001600160a01b03861615610f69576108f56121a3565b6000888152600260205260409020546001600160a01b0316801515908180610f61575b80610f4f575b610f3d57899180610f35575b610efe575b506000908152600260205260409020546001600160a01b031680151590899082610ec7575b6001600160a01b0389166000818152600360209081526040808320805460010190558583526002909152812080546001600160a01b031916831790559091907fddf252ad1be2c89b69c2b068fc378daa952ba7f163c4a11628f55a4df523b3ef9080a4610eae57853b610d63575b506109ce368984611ad2565b87600052600660205260406000209080519067ffffffffffffffff8211610c66578190610a05826109ff8654611cbc565b8661214f565b602090601f8311600114610cf757600092610cec575b50508160011b916000199060031b1c19161790555b7ff8e1a15aba9398e019f0b49df1a4fde98ee17ae345cb5f6b5e2c27f5033e8ce76020604051898152a186600052600b602052604060002067ffffffffffffffff8211610c6657610a8b82610a858354611cbc565b8361214f565b816000601f8211600114610c8757600091610c7c575b508260011b906000198460031b1c19161790555b86600052600c60205260406000209467ffffffffffffffff8411610c665760209886610ae686610a858c9a54611cbc565b6000601f8711600114610bbd577f543dd46cd09c02d855124fc5ff41d426c31ddd025fc795a96a923bd3741aac5193899a936000805160206121c28339815191529a97969389610b8a94600091610bb2575b508a60011b906000198c60031b1c19161790555b87600052600e8e5242604060002055610b7260405195869560408752604087019161212e565b8481038f8601526001600160a01b039092169661212e565b0390a3610ba26040519283928884528884019161212e565b0390a26001600955604051908152f35b90508b013538610b38565b9893929190806000528b6000209960005b601f1989168110610c4c5750927f543dd46cd09c02d855124fc5ff41d426c31ddd025fc795a96a923bd3741aac519492610b8a928b9c6000805160206121c28339815191529c9998968b601f19811610610c32575b505060018a811b019055610b4c565b8c013560001960038d901b60f8161c191690558f80610c23565b898201358c556001909b019a8c9a50908d01908d01610bce565b634e487b7160e01b600052604160045260246000fd5b90508701358a610aa1565b60008381526020812092505b601f1985168110610cd4575083601f19811610610cba575b5050600182811b019055610ab5565b880135600019600385901b60f8161c191690558980610cab565b9091602060018192858d013581550193019101610c93565b015190508b80610a1b565b9250836000526020600020906000935b601f1984168510610d48576001945083601f19811610610d2f575b505050811b019055610a30565b015160001960f88460031b161c191690558b8080610d22565b81810151835560209485019460019093019290910190610d07565b6020610da39160409a9998979a5180938192630a85bd0160e11b8352336004840152600060248401528b60448401526080606484015260848301906119a9565b038160006001600160a01b038e165af160009181610e69575b50610e2457883d15610e1c573d90610dd382611ab6565b91610de16040519384611a94565b82523d6000602084013e5b81519182610e1557604051633250574960e11b81526001600160a01b0383166004820152602490fd5b6020915001fd5b606090610dec565b969795969495946001600160e01b03191663757a42ff60e11b01610e4857886109c2565b604051633250574960e11b81526001600160a01b0386166004820152602490fd5b9091506020813d602011610ea6575b81610e8560209383611a94565b810103126101d657516001600160e01b0319811681036101d657908a610dbc565b3d9150610e78565b6040516339e3563760e11b815260006004820152602490fd5b600082815260046020526040902080546001600160a01b031916905580600052600360205260406000206000198154019055610954565b6001600160a01b038816907f84b54030d74f1340c7755e455d09a1e068b1e7391e1abf2a4ab91ae1da2a5059600080a4878a61092f565b50600161092a565b6040516352a7f8fb60e01b8152600490fd5b506001600160a01b038816811461091e565b506001610918565b604051633250574960e11b815260006004820152602490fd5b634e487b7160e01b600052601160045260246000fd5b6040516374d5cb0b60e11b81526020600482015280610fbb602482018a8a61212e565b0390fd5b604051639ed0fa1d60e01b815260048101839052602490fd5b604051635560fe6360e11b8152600490fd5b60405163128e0ec160e11b8152600490fd5b604051631658d76160e21b8152600490fd5b604051633ee5aeb560e01b8152600490fd5b6044906040519063e2517d3f60e01b82523360048301526024820152fd5b346101d65760203660031901126101d6576001600160a01b0361105f6119e9565b16801561107e5760005260036020526020604060002054604051908152f35b6040516322718ad960e21b815260006004820152602490fd5b346101d65760203660031901126101d65760206110b5600435611fa5565b6040516001600160a01b039091168152f35b346101d65760003660031901126101d657602060ff600854166040519015158152f35b346101d65760403660031901126101d65760043567ffffffffffffffff6024358181116101d65761111f903690600401611a4a565b91906111296121a3565b61113284611fa5565b336001600160a01b039091160361126b578215610fd857604083116112525783600052602091600c83526040600020908411610c665761117684610a858354611cbc565b6000601f85116001146111d857916111c891856000805160206121c28339815191529695946000916111cd575b508560011b906000198760031b1c19161790555b60405193838594855284019161212e565b0390a2005b9050820135886111a3565b601f1985169082600052846000209160005b81811061123b5750916111c89391876000805160206121c28339815191529897969410611221575b5050600185811b0190556111b7565b830135600019600388901b60f8161c191690558780611212565b9192866001819286890135815501940192016111ea565b604051639ed0fa1d60e01b815260048101849052602490fd5b60405162461bcd60e51b815260206004820152601c60248201527f43616c6c6572206973206e6f74207468652064656564206f776e6572000000006044820152606490fd5b346101d6576020806003193601126101d657600435906112ce6121a3565b60008281526002825260409020546001600160a01b039190821680158015919082908161148a575b81611482575b50610f3d5784918061147a575b61144c575b506000526002815281604060002054169133151590816113a6575b505090600260009282611373575b848452526040822080546001600160a01b03191690557fddf252ad1be2c89b69c2b068fc378daa952ba7f163c4a11628f55a4df523b3ef8280a4005b600085815260046020526040902080546001600160a01b0319169055828452600381526040842084198154019055611337565b816113f4575b50156113b9578380611329565b506113d65760249060405190637e27328960e01b82526004820152fd5b6044906040519063177e802f60e01b82523360048301526024820152fd5b33841491508115611428575b811561140e575b50846113ac565b905083600052600482523390604060002054161484611407565b90508260005260058252604060002033600052825260ff6040600020541690611400565b6000907f84b54030d74f1340c7755e455d09a1e068b1e7391e1abf2a4ab91ae1da2a50598280a4828461130e565b506000611309565b9050866112fc565b600091506112f6565b346101d6576103846114a436611a15565b90604051926114b284611a78565b600084526104ad838383611d8c565b346101d65760203660031901126101d6576004356114dd611b09565b6114e681611fa5565b5080600052600d6020526040600020600160ff198254161790557fafdcc517a26e633f535aa9cebec29f4281ab2ffa922a475b12fd1297ad765bc8602060405160018152a2005b346101d65760003660031901126101d657611546611b65565b60085460ff8116156115855760ff19166008557f5db9ee0a495bf2e6ff9c91a7834c1ba4fdd244a5e8aa4e537bd38aeae4b073aa6020604051338152a1005b604051638dfc202b60e01b8152600490fd5b346101d65760203660031901126101d6576004356115b481611fa5565b50600052600d602052602060ff604060002054166040519015158152f35b346101d65760403660031901126101d6576115eb6119ff565b336001600160a01b038216036116075761038490600435611c45565b60405163334bd91960e11b8152600490fd5b346101d65760403660031901126101d6576103846004356116386119ff565b90806000526007602052611653600160406000200154611b9f565b611bc5565b346101d65760203660031901126101d65760043560005260076020526020600160406000200154604051908152f35b346101d65761038461169836611a15565b91611d8c565b346101d65760203660031901126101d6576004356116ba611b09565b6116c381611fa5565b5080600052600d602052604060002060ff1981541690557fafdcc517a26e633f535aa9cebec29f4281ab2ffa922a475b12fd1297ad765bc8602060405160008152a2005b346101d65760403660031901126101d6576117206119e9565b60243561172c81611fa5565b331515806117db575b806117ae575b611796576001600160a01b039283169282918491167f8c5be1e5ebec7d5bd14f71427d1e84f3dd0314c0f7b2291e5b200ac8c7c3b925600080a4600090815260046020526040902080546001600160a01b0319169091179055005b60405163a9fbf51f60e01b8152336004820152602490fd5b5060018060a01b038116600052600560205260406000203360005260205260ff604060002054161561173b565b506001600160a01b038116331415611735565b346101d65760203660031901126101d65760043561180b81611fa5565b506000526004602052602060018060a01b0360406000205416604051908152f35b346101d65760003660031901126101d6576040516000805461184d81611cbc565b8084529060019081811690811561068a57506001146118765761024b846104f381860382611a94565b600080805292507f290decd9548b62a8d60345a988386fc84ba6bc95484008f6362f93160ef3e5635b8284106118b75750505081016020016104f382610621565b8054602085870181019190915290930192810161189f565b346101d65760003660031901126101d65760206040517f442a94f1a1fac79af32856af2a64f63648cfa2ef3b98610a5bb7cbec4cee69858152f35b346101d65760203660031901126101d6576004359063ffffffff60e01b82168092036101d657602091637965db0b60e01b811490811561194c575b5015158152f35b632483248360e11b811491508115611966575b5083611945565b6380ac58cd60e01b811491508115611998575b8115611987575b508361195f565b6301ffc9a760e01b14905083611980565b635b5e139f60e01b81149150611979565b919082519283825260005b8481106119d5575050826000602080949584010152601f8019910116010190565b6020818301810151848301820152016119b4565b600435906001600160a01b03821682036101d657565b602435906001600160a01b03821682036101d657565b60609060031901126101d6576001600160a01b039060043582811681036101d6579160243590811681036101d6579060443590565b9181601f840112156101d65782359167ffffffffffffffff83116101d657602083818601950101116101d657565b6020810190811067ffffffffffffffff821117610c6657604052565b90601f8019910116810190811067ffffffffffffffff821117610c6657604052565b67ffffffffffffffff8111610c6657601f01601f191660200190565b929192611ade82611ab6565b91611aec6040519384611a94565b8294818452818301116101d6578281602093846000960137010152565b3360009081527f674f3e4fb6a06d567d1ba54367a37cfa280f2988d50a919f233dad2c73ed372060205260409020547f442a94f1a1fac79af32856af2a64f63648cfa2ef3b98610a5bb7cbec4cee69859060ff16156110205750565b3360009081527f6d5257204ebe7d88fd91ae87941cb2dd9d8062b64ae5a2bd2d28ec40b9fbf6df602052604081205460ff16156110205750565b80600052600760205260406000203360005260205260ff60406000205416156110205750565b906000918083526007602052604083209160018060a01b03169182845260205260ff60408420541615600014611c405780835260076020526040832082845260205260408320600160ff198254161790557f2f8788117e7eff1d82e926ec794901d17c78024a50270940304540a733656f0d339380a4600190565b505090565b906000918083526007602052604083209160018060a01b03169182845260205260ff604084205416600014611c40578083526007602052604083208284526020526040832060ff1981541690557ff6391f5c32d9c69d2a47ea670b442974b53935d1edc7fd64eb21e047a839171b339380a4600190565b90600182811c92168015611cec575b6020831014611cd657565b634e487b7160e01b600052602260045260246000fd5b91607f1691611ccb565b9060009291805491611d0783611cbc565b918282526001938481169081600014611d695750600114611d29575b50505050565b90919394506000526020928360002092846000945b838610611d55575050505001019038808080611d23565b805485870183015294019385908201611d3e565b9294505050602093945060ff191683830152151560051b01019038808080611d23565b6001600160a01b039182169290918315610f6957611da86121a3565b60009282845260209460028652604095838787205416801515808091611f9d575b80611f94575b611f8357838794939282869390611f7b575b611f4f575b505087526002815284888820541696879133151580611eb9575b509060027fddf252ad1be2c89b69c2b068fc378daa952ba7f163c4a11628f55a4df523b3ef9284611e86575b858352600381528b8320805460010190558683525289812080546001600160a01b0319168517905580a41692838303611e655750505050565b6064945051926364283d7b60e01b8452600484015260248301526044820152fd5b600087815260046020526040902080546001600160a01b0319169055848352600381528b83208054600019019055611e2c565b91939450915080611f0e575b15611ed557859291879138611e00565b878688611ef2576024915190637e27328960e01b82526004820152fd5b604491519063177e802f60e01b82523360048301526024820152fd5b503387148015611f33575b80611ec55750858252600481523385898420541614611ec5565b5086825260058152878220338352815260ff8883205416611f19565b7f84b54030d74f1340c7755e455d09a1e068b1e7391e1abf2a4ab91ae1da2a50598a80a4828238611de6565b506001611de1565b88516352a7f8fb60e01b8152600490fd5b50838214611dcf565b506001611dc9565b6000818152600260205260409020546001600160a01b0316908115611fc8575090565b60249060405190637e27328960e01b82526004820152fd5b90939192833b611ff2575b5050505050565b604051630a85bd0160e11b8082526001600160a01b03938416600483015295831660248201526044810191909152608060648201529492169260209291859061203f9060848301906119a9565b039483816000978189895af18691816120ea575b506120b4575050503d6000146120ab573d61206d81611ab6565b9061207b6040519283611a94565b81528093823d92013e5b825192836120a657604051633250574960e11b815260048101849052602490fd5b019050fd5b60609250612085565b919450915063ffffffff60e01b16036120d257503880808080611feb565b60249060405190633250574960e11b82526004820152fd5b9091508481813d8311612127575b6121028183611a94565b8101031261212357516001600160e01b031981168103612123579038612053565b8680fd5b503d6120f8565b908060209392818452848401376000828201840152601f01601f1916010190565b90601f811161215d57505050565b600091825260208220906020601f850160051c83019410612199575b601f0160051c01915b82811061218e57505050565b818155600101612182565b9092508290612179565b60ff600854166121af57565b60405163d93c066560e01b8152600490fdfe125835a4fe84f4e1230585e7b8f8718617804e8ee459ccf87f3e893bdef61f68a264697066735822122031bb558547ace35c3cde2126e764adc28fe56adee42eb9c040735bc262e7d1d464736f6c634300081400332f8788117e7eff1d82e926ec794901d17c78024a50270940304540a733656f0d","linkReferences":{}},"methodIdentifiers":{"COMPLIANCE_ROLE()":"062d3bd7","DEFAULT_ADMIN_ROLE()":"a217fddf","MAX_COMMITMENT_LENGTH()":"c73e154c","MINTER_ROLE()":"d5391393","approve(address,uint256)":"095ea7b3","balanceOf(address)":"70a08231","burn(uint256)":"42966c68","getApproved(uint256)":"081812fc","getMintedAt(uint256)":"f449b34a","getPrivateCommitment(uint256)":"f00fb171","getPropertyId(uint256)":"b4257e28","getRoleAdmin(bytes32)":"248a9ca3","grantRole(bytes32,address)":"2f2ff15d","hasRole(bytes32,address)":"91d14854","isApprovedForAll(address,address)":"e985e9c5","isVerified(uint256)":"37b6d96b","mintPropertyDeed(address,string,string,bytes)":"79774d7e","name()":"06fdde03","ownerOf(uint256)":"6352211e","pause()":"8456cb59","paused()":"5c975abb","renounceRole(bytes32,address)":"36568abe","revokeRole(bytes32,address)":"d547741f","revokeVerification(uint256)":"1571f0c6","safeTransferFrom(address,address,uint256)":"42842e0e","safeTransferFrom(address,address,uint256,bytes)":"b88d4fde","setApprovalForAll(address,bool)":"a22cb465","supportsInterface(bytes4)":"01ffc9a7","symbol()":"95d89b41","tokenURI(uint256)":"c87b56dd","totalMinted()":"a2309ff8","transferFrom(address,address,uint256)":"23b872dd","unpause()":"3f4ba83a","updatePrivateCommitment(uint256,bytes)":"55b652ca","verifyProperty(uint256)":"4212a8ae"},"id":45}