{"abi":[{"type":"constructor","inputs":[{"name":"name_","type":"string","internalType":"string"},{"name":"symbol_","type":"string","internalType":"string"},{"name":"admin","type":"address","internalType":"address"},{"name":"propertyId_","type":"string","internalType":"string"},{"name":"deedTokenId_","type":"uint256","internalType":"uint256"},{"name":"totalSupply_","type":"uint256","internalType":"uint256"},{"name":"fundingCap_","type":"uint256","internalType":"uint256"}],"stateMutability":"nonpayable"},{"type":"receive","stateMutability":"payable"},{"type":"function","name":"COMPLIANCE_ROLE","inputs":[],"outputs":[{"name":"","type":"bytes32","internalType":"bytes32"}],"stateMutability":"view"},{"type":"function","name":"DEFAULT_ADMIN_ROLE","inputs":[],"outputs":[{"name":"","type":"bytes32","internalType":"bytes32"}],"stateMutability":"view"},{"type":"function","name":"MAX_BATCH_SIZE","inputs":[],"outputs":[{"name":"","type":"uint256","internalType":"uint256"}],"stateMutability":"view"},{"type":"function","name":"TREASURY_ADMIN_ROLE","inputs":[],"outputs":[{"name":"","type":"bytes32","internalType":"bytes32"}],"stateMutability":"view"},{"type":"function","name":"allowance","inputs":[{"name":"owner","type":"address","internalType":"address"},{"name":"spender","type":"address","internalType":"address"}],"outputs":[{"name":"","type":"uint256","internalType":"uint256"}],"stateMutability":"view"},{"type":"function","name":"approve","inputs":[{"name":"spender","type":"address","internalType":"address"},{"name":"value","type":"uint256","internalType":"uint256"}],"outputs":[{"name":"","type":"bool","internalType":"bool"}],"stateMutability":"nonpayable"},{"type":"function","name":"balanceOf","inputs":[{"name":"account","type":"address","internalType":"address"}],"outputs":[{"name":"","type":"uint256","internalType":"uint256"}],"stateMutability":"view"},{"type":"function","name":"batchWhitelist","inputs":[{"name":"accounts","type":"address[]","internalType":"address[]"},{"name":"status","type":"bool","internalType":"bool"}],"outputs":[],"stateMutability":"nonpayable"},{"type":"function","name":"burn","inputs":[{"name":"value","type":"uint256","internalType":"uint256"}],"outputs":[],"stateMutability":"nonpayable"},{"type":"function","name":"burnFrom","inputs":[{"name":"account","type":"address","internalType":"address"},{"name":"value","type":"uint256","internalType":"uint256"}],"outputs":[],"stateMutability":"nonpayable"},{"type":"function","name":"cancelEscrow","inputs":[],"outputs":[],"stateMutability":"nonpayable"},{"type":"function","name":"decimals","inputs":[],"outputs":[{"name":"","type":"uint8","internalType":"uint8"}],"stateMutability":"view"},{"type":"function","name":"deedTokenId","inputs":[],"outputs":[{"name":"","type":"uint256","internalType":"uint256"}],"stateMutability":"view"},{"type":"function","name":"depositEscrow","inputs":[],"outputs":[],"stateMutability":"payable"},{"type":"function","name":"deposits","inputs":[{"name":"","type":"address","internalType":"address"}],"outputs":[{"name":"","type":"uint256","internalType":"uint256"}],"stateMutability":"view"},{"type":"function","name":"distributeYield","inputs":[{"name":"recipient","type":"address","internalType":"address payable"},{"name":"amount","type":"uint256","internalType":"uint256"}],"outputs":[],"stateMutability":"nonpayable"},{"type":"function","name":"distributedYield","inputs":[],"outputs":[{"name":"","type":"uint256","internalType":"uint256"}],"stateMutability":"view"},{"type":"function","name":"escrowState","inputs":[],"outputs":[{"name":"","type":"uint8","internalType":"enum FractionalDeedToken.EscrowState"}],"stateMutability":"view"},{"type":"function","name":"finalizeEscrow","inputs":[],"outputs":[],"stateMutability":"nonpayable"},{"type":"function","name":"fundingCap","inputs":[],"outputs":[{"name":"","type":"uint256","internalType":"uint256"}],"stateMutability":"view"},{"type":"function","name":"getRoleAdmin","inputs":[{"name":"role","type":"bytes32","internalType":"bytes32"}],"outputs":[{"name":"","type":"bytes32","internalType":"bytes32"}],"stateMutability":"view"},{"type":"function","name":"grantRole","inputs":[{"name":"role","type":"bytes32","internalType":"bytes32"},{"name":"account","type":"address","internalType":"address"}],"outputs":[],"stateMutability":"nonpayable"},{"type":"function","name":"hasRole","inputs":[{"name":"role","type":"bytes32","internalType":"bytes32"},{"name":"account","type":"address","internalType":"address"}],"outputs":[{"name":"","type":"bool","internalType":"bool"}],"stateMutability":"view"},{"type":"function","name":"maxWithdrawalPerTx","inputs":[],"outputs":[{"name":"","type":"uint256","internalType":"uint256"}],"stateMutability":"view"},{"type":"function","name":"name","inputs":[],"outputs":[{"name":"","type":"string","internalType":"string"}],"stateMutability":"view"},{"type":"function","name":"pause","inputs":[],"outputs":[],"stateMutability":"nonpayable"},{"type":"function","name":"paused","inputs":[],"outputs":[{"name":"","type":"bool","internalType":"bool"}],"stateMutability":"view"},{"type":"function","name":"propertyId","inputs":[],"outputs":[{"name":"","type":"string","internalType":"string"}],"stateMutability":"view"},{"type":"function","name":"refundDepositor","inputs":[{"name":"depositor","type":"address","internalType":"address payable"}],"outputs":[],"stateMutability":"nonpayable"},{"type":"function","name":"renounceRole","inputs":[{"name":"role","type":"bytes32","internalType":"bytes32"},{"name":"callerConfirmation","type":"address","internalType":"address"}],"outputs":[],"stateMutability":"nonpayable"},{"type":"function","name":"revokeRole","inputs":[{"name":"role","type":"bytes32","internalType":"bytes32"},{"name":"account","type":"address","internalType":"address"}],"outputs":[],"stateMutability":"nonpayable"},{"type":"function","name":"setWhitelistEnforced","inputs":[{"name":"enforced","type":"bool","internalType":"bool"}],"outputs":[],"stateMutability":"nonpayable"},{"type":"function","name":"setWhitelisted","inputs":[{"name":"account","type":"address","internalType":"address"},{"name":"status","type":"bool","internalType":"bool"}],"outputs":[],"stateMutability":"nonpayable"},{"type":"function","name":"supplyCap","inputs":[],"outputs":[{"name":"","type":"uint256","internalType":"uint256"}],"stateMutability":"view"},{"type":"function","name":"supportsInterface","inputs":[{"name":"interfaceId","type":"bytes4","internalType":"bytes4"}],"outputs":[{"name":"","type":"bool","internalType":"bool"}],"stateMutability":"view"},{"type":"function","name":"symbol","inputs":[],"outputs":[{"name":"","type":"string","internalType":"string"}],"stateMutability":"view"},{"type":"function","name":"totalEscrowProcessed","inputs":[],"outputs":[{"name":"","type":"uint256","internalType":"uint256"}],"stateMutability":"view"},{"type":"function","name":"totalEscrowRaised","inputs":[],"outputs":[{"name":"","type":"uint256","internalType":"uint256"}],"stateMutability":"view"},{"type":"function","name":"totalSupply","inputs":[],"outputs":[{"name":"","type":"uint256","internalType":"uint256"}],"stateMutability":"view"},{"type":"function","name":"totalWithdrawn","inputs":[],"outputs":[{"name":"","type":"uint256","internalType":"uint256"}],"stateMutability":"view"},{"type":"function","name":"transfer","inputs":[{"name":"to","type":"address","internalType":"address"},{"name":"value","type":"uint256","internalType":"uint256"}],"outputs":[{"name":"","type":"bool","internalType":"bool"}],"stateMutability":"nonpayable"},{"type":"function","name":"transferFrom","inputs":[{"name":"from","type":"address","internalType":"address"},{"name":"to","type":"address","internalType":"address"},{"name":"value","type":"uint256","internalType":"uint256"}],"outputs":[{"name":"","type":"bool","internalType":"bool"}],"stateMutability":"nonpayable"},{"type":"function","name":"treasuryBalance","inputs":[],"outputs":[{"name":"","type":"uint256","internalType":"uint256"}],"stateMutability":"view"},{"type":"function","name":"triggerEmergency","inputs":[],"outputs":[],"stateMutability":"nonpayable"},{"type":"function","name":"unpause","inputs":[],"outputs":[],"stateMutability":"nonpayable"},{"type":"function","name":"whitelistEnforced","inputs":[],"outputs":[{"name":"","type":"bool","internalType":"bool"}],"stateMutability":"view"},{"type":"function","name":"whitelisted","inputs":[{"name":"","type":"address","internalType":"address"}],"outputs":[{"name":"","type":"bool","internalType":"bool"}],"stateMutability":"view"},{"type":"function","name":"withdrawFunds","inputs":[{"name":"amount","type":"uint256","internalType":"uint256"},{"name":"to","type":"address","internalType":"address payable"}],"outputs":[],"stateMutability":"nonpayable"},{"type":"event","name":"Approval","inputs":[{"name":"owner","type":"address","indexed":true,"internalType":"address"},{"name":"spender","type":"address","indexed":true,"internalType":"address"},{"name":"value","type":"uint256","indexed":false,"internalType":"uint256"}],"anonymous":false},{"type":"event","name":"EscrowDeposit","inputs":[{"name":"depositor","type":"address","indexed":true,"internalType":"address"},{"name":"amount","type":"uint256","indexed":false,"internalType":"uint256"}],"anonymous":false},{"type":"event","name":"EscrowStateChanged","inputs":[{"name":"newState","type":"uint8","indexed":false,"internalType":"enum FractionalDeedToken.EscrowState"}],"anonymous":false},{"type":"event","name":"FundsWithdrawn","inputs":[{"name":"beneficiary","type":"address","indexed":true,"internalType":"address"},{"name":"amount","type":"uint256","indexed":false,"internalType":"uint256"}],"anonymous":false},{"type":"event","name":"Paused","inputs":[{"name":"account","type":"address","indexed":false,"internalType":"address"}],"anonymous":false},{"type":"event","name":"RoleAdminChanged","inputs":[{"name":"role","type":"bytes32","indexed":true,"internalType":"bytes32"},{"name":"previousAdminRole","type":"bytes32","indexed":true,"internalType":"bytes32"},{"name":"newAdminRole","type":"bytes32","indexed":true,"internalType":"bytes32"}],"anonymous":false},{"type":"event","name":"RoleGranted","inputs":[{"name":"role","type":"bytes32","indexed":true,"internalType":"bytes32"},{"name":"account","type":"address","indexed":true,"internalType":"address"},{"name":"sender","type":"address","indexed":true,"internalType":"address"}],"anonymous":false},{"type":"event","name":"RoleRevoked","inputs":[{"name":"role","type":"bytes32","indexed":true,"internalType":"bytes32"},{"name":"account","type":"address","indexed":true,"internalType":"address"},{"name":"sender","type":"address","indexed":true,"internalType":"address"}],"anonymous":false},{"type":"event","name":"Transfer","inputs":[{"name":"from","type":"address","indexed":true,"internalType":"address"},{"name":"to","type":"address","indexed":true,"internalType":"address"},{"name":"value","type":"uint256","indexed":false,"internalType":"uint256"}],"anonymous":false},{"type":"event","name":"Unpaused","inputs":[{"name":"account","type":"address","indexed":false,"internalType":"address"}],"anonymous":false},{"type":"event","name":"WhitelistEnforcementChanged","inputs":[{"name":"enforced","type":"bool","indexed":false,"internalType":"bool"}],"anonymous":false},{"type":"event","name":"WhitelistUpdated","inputs":[{"name":"account","type":"address","indexed":true,"internalType":"address"},{"name":"status","type":"bool","indexed":false,"internalType":"bool"}],"anonymous":false},{"type":"event","name":"YieldDeposited","inputs":[{"name":"depositor","type":"address","indexed":true,"internalType":"address"},{"name":"amount","type":"uint256","indexed":false,"internalType":"uint256"}],"anonymous":false},{"type":"event","name":"YieldDistributed","inputs":[{"name":"recipient","type":"address","indexed":true,"internalType":"address"},{"name":"amount","type":"uint256","indexed":false,"internalType":"uint256"}],"anonymous":false},{"type":"error","name":"AccessControlBadConfirmation","inputs":[]},{"type":"error","name":"AccessControlUnauthorizedAccount","inputs":[{"name":"account","type":"address","internalType":"address"},{"name":"neededRole","type":"bytes32","internalType":"bytes32"}]},{"type":"error","name":"BatchTooLarge","inputs":[{"name":"size","type":"uint256","internalType":"uint256"},{"name":"max","type":"uint256","internalType":"uint256"}]},{"type":"error","name":"ERC20InsufficientAllowance","inputs":[{"name":"spender","type":"address","internalType":"address"},{"name":"allowance","type":"uint256","internalType":"uint256"},{"name":"needed","type":"uint256","internalType":"uint256"}]},{"type":"error","name":"ERC20InsufficientBalance","inputs":[{"name":"sender","type":"address","internalType":"address"},{"name":"balance","type":"uint256","internalType":"uint256"},{"name":"needed","type":"uint256","internalType":"uint256"}]},{"type":"error","name":"ERC20InvalidApprover","inputs":[{"name":"approver","type":"address","internalType":"address"}]},{"type":"error","name":"ERC20InvalidReceiver","inputs":[{"name":"receiver","type":"address","internalType":"address"}]},{"type":"error","name":"ERC20InvalidSender","inputs":[{"name":"sender","type":"address","internalType":"address"}]},{"type":"error","name":"ERC20InvalidSpender","inputs":[{"name":"spender","type":"address","internalType":"address"}]},{"type":"error","name":"EnforcedPause","inputs":[]},{"type":"error","name":"ExceedsFundingCap","inputs":[{"name":"attempted","type":"uint256","internalType":"uint256"},{"name":"remaining","type":"uint256","internalType":"uint256"}]},{"type":"error","name":"ExceedsWithdrawalLimit","inputs":[{"name":"requested","type":"uint256","internalType":"uint256"},{"name":"limit","type":"uint256","internalType":"uint256"}]},{"type":"error","name":"ExpectedPause","inputs":[]},{"type":"error","name":"InsufficientTreasuryBalance","inputs":[{"name":"requested","type":"uint256","internalType":"uint256"},{"name":"available","type":"uint256","internalType":"uint256"}]},{"type":"error","name":"InvalidEscrowStateForAction","inputs":[{"name":"current","type":"uint8","internalType":"enum FractionalDeedToken.EscrowState"}]},{"type":"error","name":"InvalidFundingCap","inputs":[]},{"type":"error","name":"NoDepositToRefund","inputs":[{"name":"account","type":"address","internalType":"address"}]},{"type":"error","name":"NotInFinalizedState","inputs":[]},{"type":"error","name":"NotInFundingState","inputs":[]},{"type":"error","name":"NotWhitelisted","inputs":[{"name":"account","type":"address","internalType":"address"}]},{"type":"error","name":"ReentrancyGuardReentrantCall","inputs":[]},{"type":"error","name":"ZeroAddress","inputs":[]},{"type":"error","name":"ZeroAmount","inputs":[]}],"bytecode":{"object":"0x604060a0815234620006f45762002662803803806200001e81620006f9565b92833981019060e081830312620006f45780516001600160401b038111620006f457826200004e9183016200071f565b60208201516001600160401b038111620006f45783620000709184016200071f565b828501516001600160a01b03811694858203620006f4576060850151906001600160401b038211620006f457620000a99186016200071f565b9060808501519260c060a08701519601519480519060018060401b0382116200049b5760035490600182811c92168015620006e9575b60208310146200047a5781601f84931162000674575b50602090601f8311600114620005e957600092620005dd575b50508160011b916000199060031b1c1916176003555b8051906001600160401b0382116200049b5760045490600182811c92168015620005d2575b60208310146200047a5781601f8493116200055d575b50602090601f8311600114620004ce57600092620004c2575b50508160011b916000199060031b1c1916176004555b60016007558315620004b15780620001aa620001bd9262000791565b50620001b68162000812565b50620008b5565b508051906001600160401b0382116200049b57600854600181811c9116801562000490575b60208210146200047a57601f811162000421575b50602090601f8311600114620003a257600a949392916000918362000396575b50508160011b916000199060031b1c1916176008555b6009556080839052600b8190550480156200038d575b600f5560ff19600a5416600a558115620003755760ff60065416620003645760ff60135416806200035b575b8062000352575b620002f6575b60025490808201809211620002e05760207fddf252ad1be2c89b69c2b068fc378daa952ba7f163c4a11628f55a4df523b3ef916000936002558484528382528584208181540190558551908152a351611cce908162000954823960805181610d700152f35b634e487b7160e01b600052601160045260246000fd5b60008052601260205260ff836000205416156200033a5781600052601260205260ff8360002054166200027b57506024915190636f8bf18b60e11b82526004820152fd5b8251636f8bf18b60e11b815260006004820152602490fd5b50600162000275565b5060006200026e565b825163d93c066560e01b8152600490fd5b825163ec442f0560e01b815260006004820152602490fd5b50600162000242565b01519050388062000216565b6008600090815260008051602062002642833981519152929190601f198516905b818110620004085750916001939185600a9897969410620003ee575b505050811b016008556200022c565b015160001960f88460031b161c19169055388080620003df565b92936020600181928786015181550195019301620003c3565b600860005260008051602062002642833981519152601f840160051c810191602085106200046f575b601f0160051c01905b818110620004625750620001f6565b6000815560010162000453565b90915081906200044a565b634e487b7160e01b600052602260045260246000fd5b90607f1690620001e2565b634e487b7160e01b600052604160045260246000fd5b8651634ecf672560e01b8152600490fd5b01519050388062000178565b6004600090815293507f8a35acfbc15ff81a39ae7d344fd709f28e8600b4aa8c65c6b64bfe7fe36bd19b91905b601f198416851062000541576001945083601f1981161062000527575b505050811b016004556200018e565b015160001960f88460031b161c1916905538808062000518565b81810151835560209485019460019093019290910190620004fb565b60046000529091507f8a35acfbc15ff81a39ae7d344fd709f28e8600b4aa8c65c6b64bfe7fe36bd19b601f840160051c81019160208510620005c7575b90601f859493920160051c01905b818110620005b757506200015f565b60008155849350600101620005a8565b90915081906200059a565b91607f169162000149565b0151905038806200010e565b600360009081527fc2575a0e9e593c00f959f8c92f12db2869c3395a3b0502d05e2516446f71f85b9350601f198516905b8181106200065b575090846001959493921062000641575b505050811b0160035562000124565b015160001960f88460031b161c1916905538808062000632565b929360206001819287860151815501950193016200061a565b60036000529091507fc2575a0e9e593c00f959f8c92f12db2869c3395a3b0502d05e2516446f71f85b601f840160051c81019160208510620006de575b90601f859493920160051c01905b818110620006ce5750620000f5565b60008155849350600101620006bf565b9091508190620006b1565b91607f1691620000df565b600080fd5b6040519190601f01601f191682016001600160401b038111838210176200049b57604052565b919080601f84011215620006f45782516001600160401b0381116200049b5760209062000755601f8201601f19168301620006f9565b92818452828287010111620006f45760005b8181106200077d57508260009394955001015290565b858101830151848201840152820162000767565b6001600160a01b031660008181527f05b8ccbb9d4d8fb16ea74ce3c29a41f1b461fbdaff4714a0d9a8eb05499746bc602052604081205490919060ff166200080e5781805260056020526040822081835260205260408220600160ff198254161790553391600080516020620026228339815191528180a4600190565b5090565b6001600160a01b031660008181527fc4bcb2964cac95392b7e3b506cf08e22fc5baa051b1018f596aa528c9a99fe5b60205260408120549091907f4ba1c0b393f1850d2175b0f2d7c2d42c3f898b0037de3434dbcee26a67c6df669060ff16620008b05780835260056020526040832082845260205260408320600160ff1982541617905560008051602062002622833981519152339380a4600190565b505090565b6001600160a01b031660008181527f9c71f34f6c28caec29a53b642f7d428de4506e0f57fa8c38507e64ce7bcfff1860205260408120549091907f442a94f1a1fac79af32856af2a64f63648cfa2ef3b98610a5bb7cbec4cee69859060ff16620008b05780835260056020526040832082845260205260408320600160ff1982541617905560008051602062002622833981519152339380a460019056fe608060409080825260049081361015610161575b50361561001f57600080fd5b60ff600a54168181101561014c576001036100f2577f4ba1c0b393f1850d2175b0f2d7c2d42c3f898b0037de3434dbcee26a67c6df666000526005602052816000203360005260205260ff826000205416156100a25750513481527ff4349e7e347f0f29eadd49905d352751a7c97e545c924e7e399e4bb0570e478760203392a2005b6020608492519162461bcd60e51b8352820152602560248201527f4f6e6c792074726561737572792061646d696e2063616e206465706f736974206044820152641e5a595b1960da1b6064820152fd5b6020608492519162461bcd60e51b8352820152602f60248201527f446972656374206465706f73697473206f6e6c7920616c6c6f77656420696e2060448201526e46696e616c697a656420737461746560881b6064820152fd5b602182634e487b7160e01b6000525260246000fd5b600090813560e01c90816301ffc9a7146114ba57508063062d3bd71461147f57806306fdde03146113c1578063095ea7b3146113165780630d109070146112db57806318160ddd146112bc5780631b6701911461129557806323b872dd14611258578063248a9ca31461122c5780632f2ff15d14611203578063313ce567146111e7578063313dab20146111cc57806336568abe146111865780633f4ba83a1461111b57806342966c68146110fd5780634b319713146110de5780634dab4207146110bf5780635c975abb1461109b57806370a0823114611064578063744bfe6114610f5057806379cc679014610f1a5780638456cb5914610ebf57806389f91ece14610e9b5780638aa1c0dc14610d935780638f770ad014610d5857806391d1485414610d105780639281aa0b14610c9557806395d89b4114610ba0578063a217fddf14610b85578063a4381ae014610a54578063a709676314610a35578063a9059cbb14610a04578063aa167dad146109e5578063ac27daa7146109c6578063b5adce3f1461088c578063b92e7fed1461081e578063bd4ba9c01461071c578063c65c006e146106fd578063cc3c70eb14610699578063cfdbf2541461067d578063d45b0007146105f4578063d547741f146105b5578063d936547e14610577578063dd62ed3e1461052e578063e3b2594f1461050f578063ea336693146104bb578063ee7a3b8e146103b55763fc7e286d036100135782346103b15760203660031901126103b15760209181906001600160a01b036103a1611557565b1681526010845220549051908152f35b5080fd5b5091346104b757826003193601126104b757805191836008549060019082821c9282811680156104ad575b602095868610821461049a5750848852908115610478575060011461041f575b61041b8686610411828b03836115c0565b519182918261150e565b0390f35b929550600883527ff3f7a9fe364faab93b216da50a3214154f22a0a2b415b23a84c8169e8b636ee35b828410610465575050508261041b94610411928201019438610400565b8054868501880152928601928101610448565b60ff191687860152505050151560051b83010192506104118261041b38610400565b634e487b7160e01b845260229052602483fd5b93607f16936103e0565b8280fd5b5082346103b157816003193601126103b15760207f170885793d189c019d6165ae7f9d1fa64e9bcb1028fd158dfa09b29b0b4e1a07916104f9611650565b600360ff19600a541617600a555160038152a180f35b5082346103b157816003193601126103b157602090600b549051908152f35b5082346103b157806003193601126103b1578060209261054c611557565b610554611572565b6001600160a01b0391821683526001865283832091168252845220549051908152f35b5082346103b15760203660031901126103b15760209160ff9082906001600160a01b036105a2611557565b1681526012855220541690519015158152f35b5091346104b757806003193601126104b7576105f091356105eb60016105d9611572565b93838752600560205286200154611708565b6117ae565b5080f35b509190346104b757826003193601126104b75761060f611650565b600a549060ff82168181101561066a5761065c57507f170885793d189c019d6165ae7f9d1fa64e9bcb1028fd158dfa09b29b0b4e1a0791600260209260ff191617600a555160028152a180f35b8251632e1386bb60e21b8152fd5b634e487b7160e01b855260218252602485fd5b5082346103b157816003193601126103b1576020905160c88152f35b509190346104b75760203660031901126104b75735908115158092036104b7577f84c7d948374a180eddab35d27d2f7a94167a1ff4e79467f1e89c061984190a1e916020916106e66116ac565b60ff196013541660ff83161760135551908152a180f35b5082346103b157816003193601126103b157602090600d549051908152f35b509190346104b757816003193601126104b757610737611557565b60243591610743611650565b61074b611bbd565b82156108105760ff600a5416818110156107fd576001036107ef574783116107d257508160209161079f7f9d315883dbfe38532083c1e42c0d10fbf89ad1cabaa0c269f78b3beb892c101d94600e54611b7c565b600e556001600160a01b0316936107c586808080868a5af16107bf611be0565b50611c20565b51908152a2600160075580f35b8351630207d7f360e41b8152908101839052476024820152604490fd5b8351630125300160e31b8152fd5b634e487b7160e01b865260218252602486fd5b8351631f2a200560e01b8152fd5b509190346104b757826003193601126104b757610839611650565b600a549060ff82168181101561066a5761065c57507f170885793d189c019d6165ae7f9d1fa64e9bcb1028fd158dfa09b29b0b4e1a0791600160209260ff191617600a55600c54600d555160018152a180f35b5091346104b757806003193601126104b75781359167ffffffffffffffff918284116109c257366023850112156109c257838201359283116109c257602493848101908536918660051b0101116109be576108e56115b1565b6108ed6116ac565b60c885116109a15790938115159190875b818110610909578880f35b887ff93f9a76c1bf3444d22400a00cb9fe990e6abe9dbb333fda48859cfee864543d6001600160a01b038061094761094286888e611c5e565b611c84565b168352610968868960209560128752209060ff801983541691151516179055565b61097661094285878d611c5e565b16918751878152a2600019811461098f576001016108fe565b634e487b7160e01b8952601186528789fd5b825163bb1cb70b60e01b815280850186905260c881880152604490fd5b8580fd5b8480fd5b5082346103b157816003193601126103b1576020906009549051908152f35b5082346103b157816003193601126103b157602090600e549051908152f35b5082346103b157806003193601126103b157602090610a2e610a24611557565b6024359033611825565b5160018152f35b5082346103b157816003193601126103b157602090600c549051908152f35b509190346104b75760203660031901126104b757610a70611557565b610a78611650565b610a80611bbd565b60ff600a541682811015610b725760028103610b5357506001600160a01b0316808452601060205282842054909290918215610b3e57838552601060205284828120558480808086885af1610ad3611be0565b5015610b0c57507feaff4b37086828766ad3268786972c0cd24259d4c87a80f9d3963a3c3d999b0d9160209151908152a2600160075580f35b6020606492519162461bcd60e51b8352820152600d60248201526c1499599d5b990819985a5b1959609a1b6044820152fd5b83602492519163676b2d4560e11b8352820152fd5b835163143d21a560e21b8152908190610b6e90828601611588565b0390fd5b634e487b7160e01b855260218352602485fd5b5082346103b157816003193601126103b15751908152602090f35b5082346103b157816003193601126103b157805191809380549160019083821c92828516948515610c8b575b6020958686108114610c7857858952908115610c545750600114610bfc575b61041b8787610411828c03836115c0565b81529295507f8a35acfbc15ff81a39ae7d344fd709f28e8600b4aa8c65c6b64bfe7fe36bd19b5b828410610c41575050508261041b9461041192820101948680610beb565b8054868501880152928601928101610c23565b60ff19168887015250505050151560051b83010192506104118261041b8680610beb565b634e487b7160e01b845260228352602484fd5b93607f1693610bcc565b5082346103b157806003193601126103b1577ff93f9a76c1bf3444d22400a00cb9fe990e6abe9dbb333fda48859cfee864543d6020610cd2611557565b610cda6115b1565b90610ce36116ac565b6001600160a01b031680865260128352848620805460ff191660ff8415151617905593519015158152a280f35b509190346104b757816003193601126104b7578160209360ff92610d32611572565b90358252600586528282206001600160a01b039091168252855220549151911615158152f35b5082346103b157816003193601126103b157602090517f00000000000000000000000000000000000000000000000000000000000000008152f35b509190826003193601126104b757610da9611b9f565b610db1611bbd565b60ff600a541681811015610e8857610e7a573415610e6c57600b5490600c5491828103908111610e5957803411610e3c575050610def903490611b7c565b600c553382526010602052808220610e08348254611b7c565b9055513481527fc9030f4276aa9a54d2f20e78ab66876119c07f7bc8bff21fb4762855efdecd2f60203392a2600160075580f35b60449250835191634ea627dd60e11b835234908301526024820152fd5b634e487b7160e01b855260118252602485fd5b9051631f2a200560e01b8152fd5b9051632e1386bb60e21b8152fd5b634e487b7160e01b845260218252602484fd5b5082346103b157816003193601126103b15760209060ff6013541690519015158152f35b5082346103b157816003193601126103b15760207f62e78cea01bee320cd4e420270b5ea74000d11b0c9f74754ebdbfc544b05a25891610efd6115f8565b610f05611b9f565b600160ff19600654161760065551338152a180f35b5082346103b157366003190112610f4d57610f4a610f36611557565b60243590610f45823383611991565b611a64565b80f35b80fd5b5091346104b757806003193601126104b757813590610f6d611572565b610f75611650565b610f7d611bbd565b8215611054576001600160a01b03169283156110465760ff600a5416818110156107fd576001036110385747831161101c57600f5480841161100257505081602091610fec7feaff4b37086828766ad3268786972c0cd24259d4c87a80f9d3963a3c3d999b0d94601154611b7c565b6011556107c586808080868a5af16107bf611be0565b8360449351926376796fb760e11b84528301526024820152fd5b9060449247915192630207d7f360e41b84528301526024820152fd5b9051630125300160e31b8152fd5b905163d92e233d60e01b8152fd5b8151631f2a200560e01b81528490fd5b5082346103b15760203660031901126103b15760209181906001600160a01b0361108c611557565b16815280845220549051908152f35b5082346103b157816003193601126103b15760209060ff6006541690519015158152f35b5082346103b157816003193601126103b157602090600f549051908152f35b5082346103b157816003193601126103b1576020906011549051908152f35b5090346103b15760203660031901126103b157610f4a903533611a64565b509190346104b757826003193601126104b7576111366115f8565b6006549060ff821615611178575060ff1916600655513381527f5db9ee0a495bf2e6ff9c91a7834c1ba4fdd244a5e8aa4e537bd38aeae4b073aa90602090a180f35b8251638dfc202b60e01b8152fd5b5082346103b157806003193601126103b1576111a0611572565b90336001600160a01b038316036111bd57506105f09192356117ae565b5163334bd91960e11b81528390fd5b5082346103b157816003193601126103b15751478152602090f35b5082346103b157816003193601126103b1576020905160128152f35b5091346104b757806003193601126104b7576105f0913561122760016105d9611572565b61172e565b509190346104b75760203660031901126104b75781602093600192358152600585522001549051908152f35b5082346103b15760603660031901126103b157602090610a2e611279611557565b611281611572565b60443591611290833383611991565b611825565b5082346103b157816003193601126103b15761041b9060ff600a5416905191829182611588565b5082346103b157816003193601126103b1576020906002549051908152f35b5082346103b157816003193601126103b157602090517f4ba1c0b393f1850d2175b0f2d7c2d42c3f898b0037de3434dbcee26a67c6df668152f35b509190346104b757816003193601126104b757611331611557565b6024359033156113aa576001600160a01b031691821561139357508083602095338152600187528181208582528752205582519081527f8c5be1e5ebec7d5bd14f71427d1e84f3dd0314c0f7b2291e5b200ac8c7c3b925843392a35160018152f35b8351634a1406b160e11b8152908101859052602490fd5b835163e602df0560e01b8152808401869052602490fd5b5091346104b757826003193601126104b757805191836003549060019082821c928281168015611475575b602095868610821461049a5750848852908115610478575060011461141c5761041b8686610411828b03836115c0565b929550600383527fc2575a0e9e593c00f959f8c92f12db2869c3395a3b0502d05e2516446f71f85b5b828410611462575050508261041b94610411928201019438610400565b8054868501880152928601928101611445565b93607f16936113ec565b5082346103b157816003193601126103b157602090517f442a94f1a1fac79af32856af2a64f63648cfa2ef3b98610a5bb7cbec4cee69858152f35b905082346104b75760203660031901126104b7573563ffffffff60e01b81168091036104b75760209250637965db0b60e01b81149081156114fd575b5015158152f35b6301ffc9a760e01b149050836114f6565b6020808252825181830181905290939260005b82811061154357505060409293506000838284010152601f8019910116010190565b818101860151848201604001528501611521565b600435906001600160a01b038216820361156d57565b600080fd5b602435906001600160a01b038216820361156d57565b91906020830192600482101561159b5752565b634e487b7160e01b600052602160045260246000fd5b60243590811515820361156d57565b90601f8019910116810190811067ffffffffffffffff8211176115e257604052565b634e487b7160e01b600052604160045260246000fd5b3360009081527f05b8ccbb9d4d8fb16ea74ce3c29a41f1b461fbdaff4714a0d9a8eb05499746bc602052604081205460ff16156116325750565b6044906040519063e2517d3f60e01b82523360048301526024820152fd5b3360009081527fc4bcb2964cac95392b7e3b506cf08e22fc5baa051b1018f596aa528c9a99fe5b60205260409020547f4ba1c0b393f1850d2175b0f2d7c2d42c3f898b0037de3434dbcee26a67c6df669060ff16156116325750565b3360009081527f9c71f34f6c28caec29a53b642f7d428de4506e0f57fa8c38507e64ce7bcfff1860205260409020547f442a94f1a1fac79af32856af2a64f63648cfa2ef3b98610a5bb7cbec4cee69859060ff16156116325750565b80600052600560205260406000203360005260205260ff60406000205416156116325750565b906000918083526005602052604083209160018060a01b03169182845260205260ff604084205416156000146117a95780835260056020526040832082845260205260408320600160ff198254161790557f2f8788117e7eff1d82e926ec794901d17c78024a50270940304540a733656f0d339380a4600190565b505090565b906000918083526005602052604083209160018060a01b03169182845260205260ff6040842054166000146117a9578083526005602052604083208284526020526040832060ff1981541690557ff6391f5c32d9c69d2a47ea670b442974b53935d1edc7fd64eb21e047a839171b339380a4600190565b916001600160a01b03808416928315611978571692831561195f57611848611b9f565b60ff6013541680611957575b8061194f575b6118f0575b600090838252816020526040822054908382106118be575091604082827fddf252ad1be2c89b69c2b068fc378daa952ba7f163c4a11628f55a4df523b3ef958760209652828652038282205586815220818154019055604051908152a3565b60405163391434e360e21b81526001600160a01b03919091166004820152602481019190915260448101839052606490fd5b82600052601260205260ff60406000205416156119365783600052601260205260ff6040600020541661185f57604051636f8bf18b60e11b815260048101859052602490fd5b604051636f8bf18b60e11b815260048101849052602490fd5b50600161185a565b506001611854565b60405163ec442f0560e01b815260006004820152602490fd5b604051634b637e8f60e11b815260006004820152602490fd5b9160018060a01b0380931691600093838552600160205260409384862091831691828752602052848620549260001984106119d0575b50505050505050565b848410611a3457508015611a1c578115611a04578552600160205283852090855260205203912055388080808080806119c7565b8451634a1406b160e11b815260048101879052602490fd5b845163e602df0560e01b815260048101879052602490fd5b8551637dc7a0d960e11b81526001600160a01b039190911660048201526024810184905260448101859052606490fd5b906001600160a01b03821690811561197857611a7e611b9f565b60ff6013541680611b74575b80611b6c575b611b22575b60009282845283602052604084205490828210611af05750817fddf252ad1be2c89b69c2b068fc378daa952ba7f163c4a11628f55a4df523b3ef926020928587528684520360408620558060025403600255604051908152a3565b60405163391434e360e21b81526001600160a01b03919091166004820152602481019190915260448101829052606490fd5b6000828152601260205260ff6040822054161561193657808052601260205260ff60408220541615611b545750611a95565b60249060405190636f8bf18b60e11b82526004820152fd5b506000611a90565b506001611a8a565b91908201809211611b8957565b634e487b7160e01b600052601160045260246000fd5b60ff60065416611bab57565b60405163d93c066560e01b8152600490fd5b600260075414611bce576002600755565b604051633ee5aeb560e01b8152600490fd5b3d15611c1b573d9067ffffffffffffffff82116115e25760405191611c0f601f8201601f1916602001846115c0565b82523d6000602084013e565b606090565b15611c2757565b60405162461bcd60e51b815260206004820152600f60248201526e151c985b9cd9995c8819985a5b1959608a1b6044820152606490fd5b9190811015611c6e5760051b0190565b634e487b7160e01b600052603260045260246000fd5b356001600160a01b038116810361156d579056fea2646970667358221220bf12f3aebc50816ae1f9efb9f265a22c62c952a0669caf3108042c7f97ba255664736f6c634300081400332f8788117e7eff1d82e926ec794901d17c78024a50270940304540a733656f0df3f7a9fe364faab93b216da50a3214154f22a0a2b415b23a84c8169e8b636ee3","linkReferences":{}},"methodIdentifiers":{"COMPLIANCE_ROLE()":"062d3bd7","DEFAULT_ADMIN_ROLE()":"a217fddf","MAX_BATCH_SIZE()":"cfdbf254","TREASURY_ADMIN_ROLE()":"0d109070","allowance(address,address)":"dd62ed3e","approve(address,uint256)":"095ea7b3","balanceOf(address)":"70a08231","batchWhitelist(address[],bool)":"b5adce3f","burn(uint256)":"42966c68","burnFrom(address,uint256)":"79cc6790","cancelEscrow()":"d45b0007","decimals()":"313ce567","deedTokenId()":"ac27daa7","depositEscrow()":"8aa1c0dc","deposits(address)":"fc7e286d","distributeYield(address,uint256)":"bd4ba9c0","distributedYield()":"aa167dad","escrowState()":"1b670191","finalizeEscrow()":"b92e7fed","fundingCap()":"e3b2594f","getRoleAdmin(bytes32)":"248a9ca3","grantRole(bytes32,address)":"2f2ff15d","hasRole(bytes32,address)":"91d14854","maxWithdrawalPerTx()":"4dab4207","name()":"06fdde03","pause()":"8456cb59","paused()":"5c975abb","propertyId()":"ee7a3b8e","refundDepositor(address)":"a4381ae0","renounceRole(bytes32,address)":"36568abe","revokeRole(bytes32,address)":"d547741f","setWhitelistEnforced(bool)":"cc3c70eb","setWhitelisted(address,bool)":"9281aa0b","supplyCap()":"8f770ad0","supportsInterface(bytes4)":"01ffc9a7","symbol()":"95d89b41","totalEscrowProcessed()":"c65c006e","totalEscrowRaised()":"a7096763","totalSupply()":"18160ddd","totalWithdrawn()":"4b319713","transfer(address,uint256)":"a9059cbb","transferFrom(address,address,uint256)":"23b872dd","treasuryBalance()":"313dab20","triggerEmergency()":"ea336693","unpause()":"3f4ba83a","whitelistEnforced()":"89f91ece","whitelisted(address)":"d936547e","withdrawFunds(uint256,address)":"744bfe61"},"id":43}