{"abi":[{"type":"constructor","inputs":[{"name":"admin","type":"address","internalType":"address"}],"stateMutability":"nonpayable"},{"type":"function","name":"COMPLIANCE_ROLE","inputs":[],"outputs":[{"name":"","type":"bytes32","internalType":"bytes32"}],"stateMutability":"view"},{"type":"function","name":"DEFAULT_ADMIN_ROLE","inputs":[],"outputs":[{"name":"","type":"bytes32","internalType":"bytes32"}],"stateMutability":"view"},{"type":"function","name":"MAX_BATCH_SIZE","inputs":[],"outputs":[{"name":"","type":"uint256","internalType":"uint256"}],"stateMutability":"view"},{"type":"function","name":"batchGrantCompliance","inputs":[{"name":"accounts","type":"address[]","internalType":"address[]"}],"outputs":[],"stateMutability":"nonpayable"},{"type":"function","name":"checkMerkleProof","inputs":[{"name":"account","type":"address","internalType":"address"},{"name":"proof","type":"bytes32[]","internalType":"bytes32[]"}],"outputs":[{"name":"valid","type":"bool","internalType":"bool"}],"stateMutability":"view"},{"type":"function","name":"commitments","inputs":[{"name":"","type":"address","internalType":"address"}],"outputs":[{"name":"","type":"bytes32","internalType":"bytes32"}],"stateMutability":"view"},{"type":"function","name":"complianceMerkleRoot","inputs":[],"outputs":[{"name":"","type":"bytes32","internalType":"bytes32"}],"stateMutability":"view"},{"type":"function","name":"externalVerifier","inputs":[],"outputs":[{"name":"","type":"address","internalType":"contract IZKVerifier"}],"stateMutability":"view"},{"type":"function","name":"getRoleAdmin","inputs":[{"name":"role","type":"bytes32","internalType":"bytes32"}],"outputs":[{"name":"","type":"bytes32","internalType":"bytes32"}],"stateMutability":"view"},{"type":"function","name":"grantCompliance","inputs":[{"name":"account","type":"address","internalType":"address"}],"outputs":[],"stateMutability":"nonpayable"},{"type":"function","name":"grantRole","inputs":[{"name":"role","type":"bytes32","internalType":"bytes32"},{"name":"account","type":"address","internalType":"address"}],"outputs":[],"stateMutability":"nonpayable"},{"type":"function","name":"hasRole","inputs":[{"name":"role","type":"bytes32","internalType":"bytes32"},{"name":"account","type":"address","internalType":"address"}],"outputs":[{"name":"","type":"bool","internalType":"bool"}],"stateMutability":"view"},{"type":"function","name":"isCompliant","inputs":[{"name":"","type":"address","internalType":"address"}],"outputs":[{"name":"","type":"bool","internalType":"bool"}],"stateMutability":"view"},{"type":"function","name":"pause","inputs":[],"outputs":[],"stateMutability":"nonpayable"},{"type":"function","name":"paused","inputs":[],"outputs":[{"name":"","type":"bool","internalType":"bool"}],"stateMutability":"view"},{"type":"function","name":"renounceRole","inputs":[{"name":"role","type":"bytes32","internalType":"bytes32"},{"name":"callerConfirmation","type":"address","internalType":"address"}],"outputs":[],"stateMutability":"nonpayable"},{"type":"function","name":"revokeCompliance","inputs":[{"name":"account","type":"address","internalType":"address"}],"outputs":[],"stateMutability":"nonpayable"},{"type":"function","name":"revokeRole","inputs":[{"name":"role","type":"bytes32","internalType":"bytes32"},{"name":"account","type":"address","internalType":"address"}],"outputs":[],"stateMutability":"nonpayable"},{"type":"function","name":"setExternalVerifier","inputs":[{"name":"verifier","type":"address","internalType":"address"}],"outputs":[],"stateMutability":"nonpayable"},{"type":"function","name":"setMerkleRoot","inputs":[{"name":"newRoot","type":"bytes32","internalType":"bytes32"}],"outputs":[],"stateMutability":"nonpayable"},{"type":"function","name":"storeCommitment","inputs":[{"name":"commitment","type":"bytes32","internalType":"bytes32"}],"outputs":[],"stateMutability":"nonpayable"},{"type":"function","name":"supportsInterface","inputs":[{"name":"interfaceId","type":"bytes4","internalType":"bytes4"}],"outputs":[{"name":"","type":"bool","internalType":"bool"}],"stateMutability":"view"},{"type":"function","name":"totalVerified","inputs":[],"outputs":[{"name":"","type":"uint256","internalType":"uint256"}],"stateMutability":"view"},{"type":"function","name":"unpause","inputs":[],"outputs":[],"stateMutability":"nonpayable"},{"type":"function","name":"verifyByMerkleProof","inputs":[{"name":"proof","type":"bytes32[]","internalType":"bytes32[]"}],"outputs":[],"stateMutability":"nonpayable"},{"type":"function","name":"verifyByZKProof","inputs":[{"name":"proof","type":"bytes","internalType":"bytes"},{"name":"publicInputs","type":"uint256[]","internalType":"uint256[]"}],"outputs":[],"stateMutability":"nonpayable"},{"type":"event","name":"AddressVerifiedByMerkle","inputs":[{"name":"account","type":"address","indexed":true,"internalType":"address"}],"anonymous":false},{"type":"event","name":"AddressVerifiedByZKProof","inputs":[{"name":"account","type":"address","indexed":true,"internalType":"address"}],"anonymous":false},{"type":"event","name":"CommitmentStored","inputs":[{"name":"account","type":"address","indexed":true,"internalType":"address"},{"name":"commitment","type":"bytes32","indexed":false,"internalType":"bytes32"}],"anonymous":false},{"type":"event","name":"ComplianceGrantedByAdmin","inputs":[{"name":"account","type":"address","indexed":true,"internalType":"address"}],"anonymous":false},{"type":"event","name":"ComplianceRevoked","inputs":[{"name":"account","type":"address","indexed":true,"internalType":"address"}],"anonymous":false},{"type":"event","name":"ExternalVerifierUpdated","inputs":[{"name":"verifier","type":"address","indexed":true,"internalType":"address"}],"anonymous":false},{"type":"event","name":"MerkleRootUpdated","inputs":[{"name":"oldRoot","type":"bytes32","indexed":true,"internalType":"bytes32"},{"name":"newRoot","type":"bytes32","indexed":true,"internalType":"bytes32"}],"anonymous":false},{"type":"event","name":"Paused","inputs":[{"name":"account","type":"address","indexed":false,"internalType":"address"}],"anonymous":false},{"type":"event","name":"RoleAdminChanged","inputs":[{"name":"role","type":"bytes32","indexed":true,"internalType":"bytes32"},{"name":"previousAdminRole","type":"bytes32","indexed":true,"internalType":"bytes32"},{"name":"newAdminRole","type":"bytes32","indexed":true,"internalType":"bytes32"}],"anonymous":false},{"type":"event","name":"RoleGranted","inputs":[{"name":"role","type":"bytes32","indexed":true,"internalType":"bytes32"},{"name":"account","type":"address","indexed":true,"internalType":"address"},{"name":"sender","type":"address","indexed":true,"internalType":"address"}],"anonymous":false},{"type":"event","name":"RoleRevoked","inputs":[{"name":"role","type":"bytes32","indexed":true,"internalType":"bytes32"},{"name":"account","type":"address","indexed":true,"internalType":"address"},{"name":"sender","type":"address","indexed":true,"internalType":"address"}],"anonymous":false},{"type":"event","name":"Unpaused","inputs":[{"name":"account","type":"address","indexed":false,"internalType":"address"}],"anonymous":false},{"type":"error","name":"AccessControlBadConfirmation","inputs":[]},{"type":"error","name":"AccessControlUnauthorizedAccount","inputs":[{"name":"account","type":"address","internalType":"address"},{"name":"neededRole","type":"bytes32","internalType":"bytes32"}]},{"type":"error","name":"AlreadyCompliant","inputs":[{"name":"account","type":"address","internalType":"address"}]},{"type":"error","name":"BatchTooLarge","inputs":[{"name":"size","type":"uint256","internalType":"uint256"},{"name":"max","type":"uint256","internalType":"uint256"}]},{"type":"error","name":"EmptyProof","inputs":[]},{"type":"error","name":"EnforcedPause","inputs":[]},{"type":"error","name":"ExpectedPause","inputs":[]},{"type":"error","name":"InvalidMerkleProof","inputs":[]},{"type":"error","name":"ZKProofInvalid","inputs":[]},{"type":"error","name":"ZKProofSenderMismatch","inputs":[]},{"type":"error","name":"ZKVerifierNotSet","inputs":[]},{"type":"error","name":"ZeroAddress","inputs":[]}],"bytecode":{"object":"0x60803461007257601f6111dd38819003918201601f19168301916001600160401b038311848410176100775780849260209460405283398101031261007257516001600160a01b0381168103610072578061005c6100629261008d565b5061010b565b5060405161101190816101ac8239f35b600080fd5b634e487b7160e01b600052604160045260246000fd5b6001600160a01b031660008181527fad3228b676f7d3cd4284a5443f17f1962b36e491b30a40b2405849e597ba5fb5602052604081205490919060ff1661010757818052816020526040822081835260205260408220600160ff1982541617905533916000805160206111bd8339815191528180a4600190565b5090565b6001600160a01b031660008181527f335573aa7cafba10a32e2694464d1e7e5294d917876d04d506249fbf84d791af60205260408120549091907f442a94f1a1fac79af32856af2a64f63648cfa2ef3b98610a5bb7cbec4cee69859060ff166101a657808352826020526040832082845260205260408320600160ff198254161790556000805160206111bd833981519152339380a4600190565b50509056fe608060408181526004918236101561001657600080fd5b600092833560e01c91826301ffc9a714610bd757508163062d3bd714610b9c5781630888b05214610a9c578163248a9ca314610a7257816327947351146109395781632e3c7b4e146109105781632f2ff15d146108e657816336568abe146108a0578163377d2778146108495781633f4ba83a146107df5781635c975abb146107bb5781637cb64759146107715781638456cb591461071757816387162ef2146106f857816391d14854146106b2578163a200e5d014610675578163a217fddf1461065a578163a913059d146105df578163b27212fa14610531578163b5a253aa146102ec578163cfdbf254146102d0578163d1b5e9121461027c578163d547741f1461023d578163d6f4459d1461019b57508063e8fcf723146101645763fe9eba151461014357600080fd5b346101605781600319360112610160576020906006549051908152f35b5080fd5b50346101605760203660031901126101605760209181906001600160a01b0361018b610c76565b1681526005845220549051908152f35b91905034610239576020366003190112610239576101b7610c76565b6101bf610c8c565b6001600160a01b031691821561022b578284526020528220805460ff81161561020c575b50507f103ae1774b5f360e00448d47d2f96eeb1a1917312a7f879c9caf38d1c04a9ccd8280a280f35b60ff1916600117905560065461022190610ea7565b60065538806101e3565b905163d92e233d60e01b8152fd5b8280fd5b9190503461023957806003193601126102395761027891356102736001610262610c60565b938387528660205286200154610d40565b610de4565b5080f35b905034610239578160031936011261023957610296610c76565b926024359067ffffffffffffffff82116102cd5750926102be6102c492602095369101610c2a565b91610eea565b90519015158152f35b80fd5b5050346101605781600319360112610160576020905160c88152f35b905034610239578160031936011261023957803567ffffffffffffffff8082116104a557366023830112156104a557818301359181831161052d57602491368385840101116105295782358181116105255761034b9036908701610c2a565b610353610ecc565b6003546001600160a01b0316801561051557338a5260209688885260ff8a8c20541661050057821580156104e0575b6104d0579081601f95949392888c5198631e8e1e1360e01b8a528d8d8b01528260448b01520160648901378b60648289010152851995869101168601926060878503018888015282606485015260018060fb1b0383116104cc576084878094928b96829460051b809285830137010301915afa9384156104c2578894610462575b505050501561045357338452528120600160ff19825416179055610428600654610ea7565b600655337f53538857276aaf87f2991143fec3e6bbe2e3e6063d2d981b2cc30375f3ff1ce28280a280f35b509051636c17a0dd60e11b8152fd5b909192935084923d86116104ba575b601f8401168401918211848310176104a95750839183918752810103126104a5575180151581036104a55738808080610403565b8480fd5b634e487b7160e01b88526041865287fd5b3d9350610471565b87513d8a823e3d90fd5b8b80fd5b89516331be481160e01b81528990fd5b6104ee573384351415610382565b634e487b7160e01b8b5260328952868bfd5b89516321e925a760e01b815233818b01528790fd5b88516339959f3160e21b81528890fd5b8780fd5b8680fd5b8580fd5b9050346102395760203660031901126102395761054c610c76565b610554610c8c565b6001600160a01b03168084526020829052918320805460ff8116610576578480f35b60ff1916905560065490811580156105b8575b5050507f2fdfd501d86e347962c2796312b56f07423fd17c78c398b0817c82a68a244ddc8280a2388080808480f35b6105cc575060001901600655388080610589565b634e487b7160e01b845260119052602483fd5b905034610239576020366003190112610239576105fa610c76565b610602610d06565b6001600160a01b031691821561064d575050600380546001600160a01b031916821790557ff65b03d732fc7506514a6fb3912225dae90c0f9ebf1b757546d2dd20b490e6078280a280f35b5163d92e233d60e01b8152fd5b50503461016057816003193601126101605751908152602090f35b9050346102395760203660031901126102395760209260ff918391906001600160a01b036106a1610c76565b168252855220541690519015158152f35b9050346102395781600319360112610239578160209360ff926106d3610c60565b903582528186528282206001600160a01b039091168252855220549151911615158152f35b5050346101605781600319360112610160576020906002549051908152f35b50503461016057816003193601126101605760207f62e78cea01bee320cd4e420270b5ea74000d11b0c9f74754ebdbfc544b05a25891610755610d06565b61075d610ecc565b600160ff198154161760015551338152a180f35b839034610160576020366003190112610160573561078d610c8c565b600254816002557ffd69edeceaf1d6832d935be1fba54ca93bf17e71520c6c9ffc08d6e9529f87578380a380f35b50503461016057816003193601126101605760209060ff6001541690519015158152f35b9050346102395782600319360112610239576107f9610d06565b6001549060ff82161561083b575060ff1916600155513381527f5db9ee0a495bf2e6ff9c91a7834c1ba4fdd244a5e8aa4e537bd38aeae4b073aa90602090a180f35b8251638dfc202b60e01b8152fd5b905034610239576020366003190112610239573590610866610ecc565b33835260056020528181842055519081527f3d72d29667cd2cb55607b194d3fff97eb719a56e534ef08df10e1dca46d728c060203392a280f35b8383346101605780600319360112610160576108ba610c60565b90336001600160a01b038316036108d75750610278919235610de4565b5163334bd91960e11b81528390fd5b91905034610239578060031936011261023957610278913561090b6001610262610c60565b610d66565b50503461016057816003193601126101605760035490516001600160a01b039091168152602090f35b838334610160576020908160031936011261023957833567ffffffffffffffff8111610a6e5761096c9036908601610c2a565b94610975610c8c565b60c88611610a5057845b86811061098a578580f35b6109c9906001600160a01b03806109aa6109a5848c89610f2b565b610f51565b16885283875260ff86892054161580610a38575b6109ce575b50610ea7565b61097f565b806109dd6109a5848c89610f2b565b168852838752858820600160ff1982541617905560066109fd8154610ea7565b9055610a0d6109a5838b88610f2b565b167f103ae1774b5f360e00448d47d2f96eeb1a1917312a7f879c9caf38d1c04a9ccd8880a2886109c3565b5080610a486109a5848c89610f2b565b1615156109be565b825163bb1cb70b60e01b815290810186905260c86024820152604490fd5b8380fd5b90503461023957602036600319011261023957816020936001923581528085522001549051908152f35b90503461023957602036600319011261023957803567ffffffffffffffff8111610a6e57610acd9036908301610c2a565b90610ad6610ecc565b8115610b8c573385528260205260ff8486205416610b765790610b1a91845160208101903360601b825260148152610b0d81610e59565b5190209160025491610f65565b15610b68573383526020528120600160ff19825416179055610b3d600654610ea7565b600655337f4f8fa72dad91b076f362c5d3fbab578174b1cf3961cb9d7f2fe2b76dc21e856b8280a280f35b905163582f497d60e11b8152fd5b83516321e925a760e01b81523381850152602490fd5b835163668fd6f360e01b81528390fd5b505034610160578160031936011261016057602090517f442a94f1a1fac79af32856af2a64f63648cfa2ef3b98610a5bb7cbec4cee69858152f35b849134610239576020366003190112610239573563ffffffff60e01b81168091036102395760209250637965db0b60e01b8114908115610c19575b5015158152f35b6301ffc9a760e01b14905083610c12565b9181601f84011215610c5b5782359167ffffffffffffffff8311610c5b576020808501948460051b010111610c5b57565b600080fd5b602435906001600160a01b0382168203610c5b57565b600435906001600160a01b0382168203610c5b57565b3360009081527f335573aa7cafba10a32e2694464d1e7e5294d917876d04d506249fbf84d791af60205260409020547f442a94f1a1fac79af32856af2a64f63648cfa2ef3b98610a5bb7cbec4cee69859060ff1615610ce85750565b6044906040519063e2517d3f60e01b82523360048301526024820152fd5b3360009081527fad3228b676f7d3cd4284a5443f17f1962b36e491b30a40b2405849e597ba5fb5602052604081205460ff1615610ce85750565b80600052600060205260406000203360005260205260ff6040600020541615610ce85750565b9060009180835282602052604083209160018060a01b03169182845260205260ff60408420541615600014610ddf57808352826020526040832082845260205260408320600160ff198254161790557f2f8788117e7eff1d82e926ec794901d17c78024a50270940304540a733656f0d339380a4600190565b505090565b9060009180835282602052604083209160018060a01b03169182845260205260ff604084205416600014610ddf5780835282602052604083208284526020526040832060ff1981541690557ff6391f5c32d9c69d2a47ea670b442974b53935d1edc7fd64eb21e047a839171b339380a4600190565b6040810190811067ffffffffffffffff821117610e7557604052565b634e487b7160e01b600052604160045260246000fd5b6060810190811067ffffffffffffffff821117610e7557604052565b6000198114610eb65760010190565b634e487b7160e01b600052601160045260246000fd5b60ff60015416610ed857565b60405163d93c066560e01b8152600490fd5b91908115610f2357610f209260405160208101916bffffffffffffffffffffffff199060601b16825260148152610b0d81610e59565b90565b505050600090565b9190811015610f3b5760051b0190565b634e487b7160e01b600052603260045260246000fd5b356001600160a01b0381168103610c5b5790565b9192916000915b808310610f7a575050501490565b909192610fb890610f8c858486610f2b565b35808211610fbf57604080519160208301938452818301528152610faf81610e8b565b51902093610ea7565b9190610f6c565b90604080519160208301938452818301528152610faf81610e8b56fea2646970667358221220d47dc6f5f0f2b8e269a7d7178396a15aa2c85b0464eb027d72a80c9453c3b5bd64736f6c634300081400332f8788117e7eff1d82e926ec794901d17c78024a50270940304540a733656f0d","linkReferences":{}},"methodIdentifiers":{"COMPLIANCE_ROLE()":"062d3bd7","DEFAULT_ADMIN_ROLE()":"a217fddf","MAX_BATCH_SIZE()":"cfdbf254","batchGrantCompliance(address[])":"27947351","checkMerkleProof(address,bytes32[])":"d1b5e912","commitments(address)":"e8fcf723","complianceMerkleRoot()":"87162ef2","externalVerifier()":"2e3c7b4e","getRoleAdmin(bytes32)":"248a9ca3","grantCompliance(address)":"d6f4459d","grantRole(bytes32,address)":"2f2ff15d","hasRole(bytes32,address)":"91d14854","isCompliant(address)":"a200e5d0","pause()":"8456cb59","paused()":"5c975abb","renounceRole(bytes32,address)":"36568abe","revokeCompliance(address)":"b27212fa","revokeRole(bytes32,address)":"d547741f","setExternalVerifier(address)":"a913059d","setMerkleRoot(bytes32)":"7cb64759","storeCommitment(bytes32)":"377d2778","supportsInterface(bytes4)":"01ffc9a7","totalVerified()":"fe9eba15","unpause()":"3f4ba83a","verifyByMerkleProof(bytes32[])":"0888b052","verifyByZKProof(bytes,uint256[])":"b5a253aa"},"id":46}